:1000000012C070C014C11DC085C092C01AC019C0F2
:1000100018C017C016C015C014C086C112C011C0C8
:1000200010C00FC00EC011241FBECFEDCDBF20E009
:10003000A0E6B0E001C01D92A037B207E1F702D000
:10004000C4C1DECF87B38F6087BB8DE486BF80B726
:10005000826080BF89B7816089BF83B7856083BFB5
:1000600088EB9BE09BBD8ABD8FB58FBD88B7816053
:1000700088BF89B7806C89BF8EB581608EBD8EB513
:100080008E7F8EBD8BB7806C8BBF789480EF90E0B5
:1000900090936A008093690080E293E09BBD8ABDE3
:1000A0008091690090916A00803F910519F00EB42B
:1000B00000FCF6CF10926A00109269008EB58E7F18
:1000C0008EBD1DBC1CBCC098C198C298C39885B792
:1000D000806585BF85B7806285BF889585B78F7D30
:1000E00085BFDECF1F920F920FB60F9211248F9310
:1000F00010926A001092690089B78F7389BF8EB51C
:1001000081608EBD1DBC1CBC8F910F900FBE0F90E7
:100110001F9018951F920F920FB60F921124C0983E
:10012000C198C298C3980F900FBE0F901F9018955A
:100130001F920F920FB60F921124C09AC19AC29AC1
:10014000C39A0F900FBE0F901F9018958EB58E7F9B
:100150008EBD80E093E020E03EC0C49AC09AC19A70
:10016000C29AC39A3FE749EA53E0315040405040B9
:10017000E1F700C00000C498C098C198C298C39825
:100180003FE749EA53E0315040405040E1F700C0BA
:10019000000082991DC0C49AC09AC19AC29AC39A9B
:1001A0008FEF9EE924E2815090402040E1F700C0AB
:1001B0000000C498C098C198C298C3983FEF49E620
:1001C00058E1315040405040E1F700C00000089530
:1001D0008F5F01C0822F833008F4BFCF8FEF39E6E5
:1001E00048E1815030404040E1F700C00000892FD5
:1001F000C49AC09AC19AC29AC39A5FE730EC44E1AC
:10020000515030404040E1F700C00000C498C09811
:10021000C198C298C3985FE730EC44E15150304038
:100220004040E1F700C00000815011F7D3CF1F928A
:100230000F920FB60F9211242F933F934F935F931A
:100240006F937F938F939F93AF93BF93EF93FF939E
:100250007DDFFF91EF91BF91AF919F918F917F9142
:100260006F915F914F913F912F910F900FBE0F9023
:100270001F901895F89490916B00892390916B00D2
:10028000982790936B007894089580B390916F00B5
:1002900080958927909162009823909590936200B1
:1002A000209161002823292720936100892382233C
:1002B00090916F00982790936F0090916F0020911C
:1002C0006E008923822B80936E0080916F008F7067
:1002D00021F484E08093600012C08091600081501E
:1002E00019F0809360000BC085E0809360008091DE
:1002F0006F0090916B008F70892B80936B0081E071
:10030000B9DF882331F08AB59BB5895999419BBDE6
:100310008ABD82E0AFDF882331F08AB59BB587566E
:10032000964E9BBD8ABD08951F920F920FB60F92F5
:1003300011242F933F934F935F936F937F938F93EA
:100340009F93AF93BF93EF93FF9380916900909138
:100350006A00019690936A008093690096DF80910D
:100360006C0080FF14C0809163008F5F80936300F6
:10037000882369F0C49A809163008B3040F010921A
:100380006300C49880916C008E7F80936C00829B88
:1003900003C089B7806C89BF10926A00109269000F
:1003A00010926A0010926900FF91EF91BF91AF9196
:1003B0009F918F917F916F915F914F913F912F917D
:0E03C0000F900FBE0F901F901895F894FFCF6E
:00000001FF
