:1000000012C06FC025C11DC0B3C0C0C01AC019C086
:1000100018C017C016C015C014C014C012C011C03B
:1000200010C00FC00EC011241FBECFEDCDBF20E009
:10003000A0E6B0E001C01D92A636B207E1F79DD15F
:10004000DCC1DECF1F920F920FB60F9211242F93B7
:100050008F939F9380916300909164000196909399
:100060006400809363008AB59BB59093620080938F
:1000700061009091650080B38370981731F1809191
:100080006100909162008236964E60F481990AC0B8
:1000900010926400109263008AB59BB58756964E05
:1000A0009BBD8ABD809161009091620081389D4125
:1000B00060F080990AC010926400109263008AB5C3
:1000C0009BB5895999419BBD8ABD80B3837080934C
:1000D00065009F918F912F910F900FBE0F901F90F1
:1000E00018951F920F920FB60F9211242F938F9392
:1000F0009F9385B78F7D85BF109264001092630037
:100100002FEF80E792E0215080409040E1F700C05F
:1001100000009091650080B384709817A1F08091E1
:100120006000813051F4C398C298C198C098109271
:10013000600089B78F7389BF06C089B7806C89BF9B
:1001400081E08093600080B38470809365002FEF1E
:1001500080E792E0215080409040E1F700C000002D
:100160009F918F912F910F900FBE0F901F90189518
:100170001F920F920FB60F921124C098C198C29887
:10018000C3980F900FBE0F901F9018951F920F925B
:100190000FB60F921124C09AC19AC29AC39A0F90B7
:1001A0000FBE0F901F90189580E0833040F5C09AE5
:1001B000C19AC29AC39A2FEF30E792E021503040A3
:1001C0009040E1F700C00000C098C198C298C39861
:1001D0002FEF30E792E0215030409040E1F700C02F
:1001E0000000829B34C095B7906295BF95B790622E
:1001F00095BF889595B79F7D95BF8F5FD6CF2FEF21
:1002000039E688E1215030408040E1F700C000002D
:1002100083E0C09AC19AC29AC39A9FEF24E33CE05C
:10022000915020403040E1F700C00000C098C198D4
:10023000C298C3989FEF24E33CE0915020403040A7
:10024000E1F700C00000815021F780E0B0CF0895B1
:100250001F920F920FB60F9211242F933F934F933B
:100260005F936F937F938F939F93AF93BF93EF931E
:10027000FF939ADFFF91EF91BF91AF919F918F9183
:100280007F916F915F914F913F912F910F900FBE92
:100290000F901F90189582E0C09A2FEF30E792E000
:1002A000215030409040E1F700C00000C19A2FEF8C
:1002B00030E792E0215030409040E1F700C000006C
:1002C000C29A2FEF30E792E0215030409040E1F7A2
:1002D00000C00000C39A2FEF30E792E02150304079
:1002E0009040E1F700C00000C3982FEF30E792E0A4
:1002F000215030409040E1F700C00000C2982FEF3D
:1003000030E792E0215030409040E1F700C000001B
:10031000C1982FEF30E792E0215030409040E1F754
:1003200000C00000C0982FEF30E792E0215030402D
:100330009040E1F700C00000815009F0ADCF85E0AA
:10034000C09AC19AC29AC39A2FE738E391E021502C
:1003500030409040E1F700C00000C098C198C298BA
:10036000C3982FE738E391E0215030409040E1F707
:1003700000C00000815021F708958DE486BF80B74A
:1003800080BF89B7816089BF83B7856083BF88EEEE
:1003900093E09BBD8ABD8FB58FBD88B7816088BF54
:1003A00089B7816089BF8EB581608EBD8BB780644F
:1003B0008BBF8BB780688BBF78946DDF85B7806506
:1003C00085BF85B7806285BF889585B78F7D85BFDE
:1003D000809163009091640020916000222319F0C5
:1003E00088359240A9F710926000C098C198C298D1
:0E03F000C39889B78F7389BFE4CFF894FFCF0D
:00000001FF
